:100000000C94A0010C94BD010C94BD010C94BD0195
:100010000C94BD010C94BD010C94BD010C94BD0168
:100020000C94BD010C94BD010C94BD010C943B03D8
:100030000C94BD010C94BD010C94BD010C94BD0148
:100040000C94BD010C94BD010C94BD010C94BD0138
:100050000C94BD010C94BD010C94BD010C94BD0128
:100060000C94BD010C94BD010000000000000000D4
:100070000000000000000000000000000000000080
:100080000000000000000000000000000000000070
:100090000000000000000000000000000000000060
:1000A0000000000000000000000000000000000050
:1000B0000000000000000000000000000000000040
:1000C0000000000000000000000000000000000030
:1000D0000000000000000000000000000000000020
:1000E0000000000000000000000000000000000010
:1000F0000000000000000000000000000000000000
:1001000000000000000000000000000000000000EF
:1001100000000000000000000000000000000000DF
:1001200000000000000000000000000000000000CF
:1001300000000000000000000000000000000000BF
:1001400000000000000000000000000000000000AF
:10015000000000000000000000000000000000009F
:10016000000000000000000000000000000000008F
:100170001FBF1F0000000000000000000000000082
:1001800066FFFF66FFFF6600000000000000000041
:10019000000000000000000000000000000000005F
:1001A000000000000000000000000000000000004F
:1001B000000000000000000000000000000000003F
:1001C000000000000000000000000000000000002F
:1001D0000000000000000000C0C00000000000009F
:1001E00000000000000000007EC3B19DC37E00003F
:1001F000000000FFFF00000000E291918989860065
:1002000000C3DBDBDBDBFF00001F1F1818FFFF0054
:10021000CFCFC9C9C9F900007EDB8B8BDB70000032
:1002200083C36131190D070000FFFF9999FFFF009B
:100230000E1B31311BFFFE000000666666000000E9
:100240000C3E7EFCFC7E3E0C000000000000000026
:10025000000000000000000000000000000000009E
:10026000000000000000000000000000000000008E
:10027000FCFE131313FEFC00FFFF898FFE700000CD
:100280007EFFC3C3C3C3C300FFFFC3C3E67E180022
:10029000FFFFDBDBDBC30000FFFF1B1B03030000D2
:1002A000FFFFC3C3DBDBFB00FFFF181818FFFF00D5
:1002B00000C3C3FFC3C30000E0E3C3FF7F03030029
:1002C00000FFFF1C36E3C1000000FFFFC0C0C000FC
:1002D000FFFF060C06FFFF00FFFF061C30FFFF00BC
:1002E0003C7EC3C3C37E3C0000FFFF1111110E0012
:1002F0003C7EC3D3E37E9C00FEFF11317BCE8000A9
:10030000DFDFD9D9F9F90000000303FFFF03030081
:10031000FFFFC0C0C0FFFF00071F78E0781F070085
:100320007FFFC07CC0FF7F00C16336183663C10009
:1003300083CEFC380C070300C3E3F3DBDBCFC7003D
:1003400011241FBECFEFD8E0DEBFCDBF11E0A0E08B
:10035000B1E0EAEEF7E002C005900D92A632B107D7
:10036000D9F721E0A6E2B1E001C01D92AE37B20795
:10037000E1F70E94DA030C94F3030C94000084B1BB
:100380008C6284B983E58CBD08958EBD0DB407FEE3
:10039000FDCF8EB50895CF93DF93FC012081F8E067
:1003A0002F0290011124FC0151815A3029F088E07C
:1003B0005802F001112402C0E0E0F0E077FD21C016
:1003C000E6E2F1E0CB018A5D9E4FE817F90711F0F4
:1003D0001192FBCF261B370B6830710569F0F901CC
:1003E000E60FF71FE859FF4FE491DB01AA5DBE4F0E
:1003F000EC936F5F7F4FF0CFA6E2B1E02EE231E0E9
:1004000028C0CB01DF01A61BB70BEC01CA5DDE4F94
:100410005A3041F0FD01E80FF91FE859FF4FE49110
:10042000E88701C01886019681F7A6E2B1E088EF5F
:100430009FEF261B370B285F3F4F86179707E4F681
:10044000F901E80FF91FE859FF4FE491ED93019688
:10045000F4CF6D91062E000C770BF90187E090E048
:10046000EB01082E02C0D595C7950A94E2F7C0FFAC
:1004700002C0408301C01082019738968F3F5FEF22
:10048000950771F72F5F3F4F81E0AE32B80709F74C
:10049000DF91CF9108950E94BF01C0E0D0E010E04D
:1004A000112309F446C0113029F0123029F4C0E0BC
:1004B000D1E002C0C0E1D1E0EE24EA94FE2C40EE8F
:1004C000B701CE010E94CB012A988FE99FE00197E6
:1004D000F1F700C000008EE2C82E81E0D82EF601B0
:1004E00081916F010E94C501FEE6CF16F1E0DF06A3
:1004F000B1F78FE99FE00197F1F700C000002A9A59
:100500009FEFE1EEF4E09150E040F040E1F700C0F1
:10051000000021E0E21AF10887EFE8168FEFF806F5
:1005200071F68981811108C01F5F133009F0B8CFBF
:1005300010E0C3E1D1E0C0CF2196BECF91E085B1FC
:10054000892785B92FEF35EA8EE021503040804071
:10055000E1F700C00000F3CFEEE6F1E08BE492E0BB
:100560009187808780E096E096838583178208953F
:100570009091C00095FFFCCF8093C6000895CF9363
:10058000DF93CDB7DEB72A970FB6F894DEBF0FBE64
:10059000CDBF8AE0EBE1F1E08E010F5F1F4FD80184
:1005A00001900D928A95E1F7F12CF801019000205D
:1005B000E9F73197E01BF10B8F2D90E08E179F0725
:1005C00040F4F801E80FF91F80810E94B802F3940B
:1005D000ECCF2FEF81EE94E0215080409040E1F786
:1005E00000C00000E1CF1092C50087E68093C400F0
:1005F00088E08093C10086E08093C200EEE6F1E0DF
:100600008FEB92E09687858780E097E093878287DB
:100610001486089584B1836084B9EEE6F1E08EE932
:1006200092E09483838380E095E0918380831282BB
:100630000895E1E8F0E080818860808380818460B3
:10064000808380818160808388E391E0909389003A
:1006500080938800EFE6F0E08081826080830895D7
:1006600080917D018F5F833018F480937D01089520
:1006700010927D0108951F920F920FB60F921124D0
:100680002F933F934F935F936F937F938F939F939A
:10069000AF93BF93EF93FF930F920FB60F921F92FA
:1006A0002F923F924F925F926F927F928F929F9282
:1006B000AF92BF92CF92DF92EF92FF920F931F9370
:1006C0002F933F934F935F936F937F938F939F935A
:1006D000AF93BF93CF93DF93EF93FF93E0917D01AF
:1006E00085E0E89FF0011124E259FE4F82818130BC
:1006F00021F48DB79EB7918380830E943003E091EF
:100700007D012E2F30E085E0E89FF0011124E259B1
:10071000FE4F828181110FC0808191819EBF8DBF6C
:1007200081E0828383819481AC0155274F93892F87
:1007300099278F93189585E0829FF001839FF00D94
:100740001124E259FE4F808191819EBF8DBFFF91A0
:10075000EF91DF91CF91BF91AF919F918F917F9159
:100760006F915F914F913F912F911F910F91FF904A
:10077000EF90DF90CF90BF90AF909F908F907F9041
:100780006F905F904F903F902F901F900F900FBEF3
:100790000F90FF91EF91BF91AF919F918F917F91BA
:1007A0006F915F914F913F912F910F900FBE0F90DE
:1007B0001F9018950E94190310927D010E940A0350
:1007C00095B182E0892785B92FEF89E698E121501C
:1007D00080409040E1F700C000000E94F3020E94B8
:0A07E000AC027894FFCFF894FFCF2D
:1007EA00504F4C5954454348204C494C4C452100E4
:1007FA00544F0057454C434F4D45006D6573736127
:06080A0067650D0A000005
:00000001FF
